:100000000C9446000C9458000C9458000C94580022
:100010000C9458000C9458000C9458000C94580000
:100020000C9458000C9458000C9458000C945800F0
:100030000C9458000C9458000C9458000C945800E0
:100040000C9458000C9458000C9458000C945800D0
:100050000C9458000C9458000C9458000C945800C0
:100060000C9458000C9458000C9458000C945800B0
:100070000C9458000C9458000C9458000C945800A0
:100080000C9458000C9458000C94580011241FBE76
:10009000CFEFD0E4DEBFCDBF21E0A0E0B1E001C0F2
:1000A0001D92A830B207E1F70E947B010C94510227
:1000B0000C94000011B887E880937A0080E4809364
:1000C0007C0008958770806480937C00EAE7F0E00C
:1000D00080818064808380917A0084FFFCCFEAE78E
:1000E000F0E0808180618083209178009091790098
:1000F000892F90E0982F8827820F911D0895CF9324
:10010000DF93D82FC0E013C0ED2FF0E0EE0FFF1FFC
:10011000EE0FFF1FEE0FFF1FE050FF4FEC0FF11D22
:10012000108240E06C2F8D2F0E941402CF5FC830E8
:1001300058F3DF91CF9108950F931F93CF93DF93DF
:10014000082FC62FD72F81111DC0182F19C0812F3E
:1001500090E0DE01A80FB91FE02FF0E02C91EE0F28
:10016000FF1FEE0FFF1FEE0FFF1FE050FF4FE80FC6
:10017000F91F20834C91612F802F0E9414021F5F72
:10018000183028F3DF91CF911F910F9108958111BD
:1001900002C0683008F00895E82FF0E0EE0FFF1F6E
:1001A000EE0FFF1FEE0FFF1FE050FF4FE60FF11D98
:1001B00040830E941402EFCF962F6034E8F46770FA
:1001C000E82FF0E0EE0FFF1FEE0FFF1FEE0FFF1FF7
:1001D000E050FF4FE60FF11D2081442371F096950A
:1001E0009695969541E050E002C0440F551F9A95B0
:1001F000E2F7422B0E94C700089596959695969532
:1002000041E050E002C0440F551F9A95E2F7409537
:100210004223F0CF41E00E94DC00089540E00E94BC
:10022000DC0008950E94CF010895CF930E9435020B
:10023000C0E028C0EC2FF0E0EE0FFF1FEE0FFF1F15
:10024000EE0FFF1FE050FF4FE80FF11D10828F5F90
:10025000883080F361E08C2F0E94C70160E08C2F12
:100260000E94D70160E08C2F0E94E7016FE08C2F85
:100270000E94CF0167E08C2F0E94DF018C2F0E942B
:100280007F00CF5FCC2311F0CF9108958C2FE0CF6A
:100290008FEF81B912B884B915B887B918B80E9420
:1002A0005A0005C0C039D140B4F482E085B980E07D
:1002B0000E946200082F192F81E00E946200C82F5F
:1002C000D92F82E00E946200C93582E0D80754F33A
:1002D00080E185B9ECCF003981E018071CF488E093
:1002E00085B9E5CF093512401CF084E085B9DFCF30
:1002F00081E085B9DCCF0E94480198E007C02BB1AE
:100300002D7F2BB92BB128602BB991509923E9F09F
:10031000292F2150330BB90141E050E002C0440FB6
:10032000551F2A95E2F7282F30E02423352302C0F9
:10033000359527956A95E2F73BB1377F3BB9222384
:10034000F1F22BB122602BB9DDCF0895CF93DF936B
:10035000D82FC42F882319F0DF91CF9108958BB146
:100360008B7F8BB9862F0E947D018C2F0E947D018F
:10037000CD2FCD1740F480E00E947D0180E00E94E7
:100380007D01CF5FF6CF8BB184608BB9E5CF623052
:1003900008F00895462F6CE00E94A601FACF603164
:1003A00008F00895462F6AE00E94A601FACF623055
:1003B00008F00895462F6FE00E94A601FACF68303A
:1003C00008F00895462F6BE00E94A601FACF462F51
:1003D00069E00E94A6010895462F61E00E94A601EF
:1003E0000895462F62E00E94A6010895462F63E01B
:1003F0000E94A6010895462F64E00E94A601089578
:10040000462F65E00E94A6010895462F66E00E94EF
:10041000A6010895462F67E00E94A6010895462F81
:1004200068E00E94A6010895E62F642FE830E0F40A
:10043000F0E0ED5AFD4F0C9448020E94EC01089543
:100440000E94F10108950E94F60108950E94FB01A7
:1004500008950E94000208950E94050208950E94D6
:100460000A0208950E940F0208958AB182608AB933
:100470008AB188608AB98AB184608AB98BB18D7F6C
:100480008BB98BB1877F8BB98BB18B7F8BB908957B
:10049000EE0FFF1F0024001C0BBE0790F691E02D0D
:1004A0000994F894FFCF1D0220022302260229029C
:0604B0002C022F023202B3
:00000001FF
